{
  "_format": "hh-sol-artifact-1",
  "contractName": "Forum",
  "sourceName": "contracts/Forum.sol",
  "abi": [
    {
      "inputs": [
        {
          "internalType": "address",
          "name": "_tokenAddress",
          "type": "address"
        }
      ],
      "stateMutability": "nonpayable",
      "type": "constructor"
    },
    {
      "anonymous": false,
      "inputs": [
        {
          "components": [
            {
              "internalType": "uint256",
              "name": "answerId",
              "type": "uint256"
            },
            {
              "internalType": "uint256",
              "name": "questionId",
              "type": "uint256"
            },
            {
              "internalType": "address",
              "name": "creatorAddress",
              "type": "address"
            },
            {
              "internalType": "string",
              "name": "message",
              "type": "string"
            },
            {
              "internalType": "uint256",
              "name": "timeStamp",
              "type": "uint256"
            },
            {
              "internalType": "uint256",
              "name": "upVotes",
              "type": "uint256"
            }
          ],
          "indexed": false,
          "internalType": "struct Forum.Answer",
          "name": "answer",
          "type": "tuple"
        }
      ],
      "name": "AnswerAdded",
      "type": "event"
    },
    {
      "anonymous": false,
      "inputs": [
        {
          "components": [
            {
              "internalType": "uint256",
              "name": "answerId",
              "type": "uint256"
            },
            {
              "internalType": "uint256",
              "name": "questionId",
              "type": "uint256"
            },
            {
              "internalType": "address",
              "name": "creatorAddress",
              "type": "address"
            },
            {
              "internalType": "string",
              "name": "message",
              "type": "string"
            },
            {
              "internalType": "uint256",
              "name": "timeStamp",
              "type": "uint256"
            },
            {
              "internalType": "uint256",
              "name": "upVotes",
              "type": "uint256"
            }
          ],
          "indexed": false,
          "internalType": "struct Forum.Answer",
          "name": "answer",
          "type": "tuple"
        }
      ],
      "name": "AnswerUpvoted",
      "type": "event"
    },
    {
      "anonymous": false,
      "inputs": [
        {
          "components": [
            {
              "internalType": "uint256",
              "name": "questionId",
              "type": "uint256"
            },
            {
              "internalType": "string",
              "name": "message",
              "type": "string"
            },
            {
              "internalType": "address",
              "name": "creatorAddress",
              "type": "address"
            },
            {
              "internalType": "uint256",
              "name": "timeStamp",
              "type": "uint256"
            }
          ],
          "indexed": false,
          "internalType": "struct Forum.Question",
          "name": "question",
          "type": "tuple"
        }
      ],
      "name": "QuestionAdded",
      "type": "event"
    },
    {
      "inputs": [],
      "name": "Token",
      "outputs": [
        {
          "internalType": "contract IERC20",
          "name": "",
          "type": "address"
        }
      ],
      "stateMutability": "view",
      "type": "function"
    },
    {
      "inputs": [
        {
          "internalType": "uint256",
          "name": "",
          "type": "uint256"
        }
      ],
      "name": "answers",
      "outputs": [
        {
          "internalType": "uint256",
          "name": "answerId",
          "type": "uint256"
        },
        {
          "internalType": "uint256",
          "name": "questionId",
          "type": "uint256"
        },
        {
          "internalType": "address",
          "name": "creatorAddress",
          "type": "address"
        },
        {
          "internalType": "string",
          "name": "message",
          "type": "string"
        },
        {
          "internalType": "uint256",
          "name": "timeStamp",
          "type": "uint256"
        },
        {
          "internalType": "uint256",
          "name": "upVotes",
          "type": "uint256"
        }
      ],
      "stateMutability": "view",
      "type": "function"
    },
    {
      "inputs": [
        {
          "internalType": "uint256",
          "name": "",
          "type": "uint256"
        },
        {
          "internalType": "uint256",
          "name": "",
          "type": "uint256"
        }
      ],
      "name": "answersPerQuestion",
      "outputs": [
        {
          "internalType": "uint256",
          "name": "",
          "type": "uint256"
        }
      ],
      "stateMutability": "view",
      "type": "function"
    },
    {
      "inputs": [
        {
          "internalType": "uint256",
          "name": "_questionId",
          "type": "uint256"
        }
      ],
      "name": "getAnswersPerQuestion",
      "outputs": [
        {
          "internalType": "uint256[]",
          "name": "",
          "type": "uint256[]"
        }
      ],
      "stateMutability": "view",
      "type": "function"
    },
    {
      "inputs": [],
      "name": "getQuestions",
      "outputs": [
        {
          "components": [
            {
              "internalType": "uint256",
              "name": "questionId",
              "type": "uint256"
            },
            {
              "internalType": "string",
              "name": "message",
              "type": "string"
            },
            {
              "internalType": "address",
              "name": "creatorAddress",
              "type": "address"
            },
            {
              "internalType": "uint256",
              "name": "timeStamp",
              "type": "uint256"
            }
          ],
          "internalType": "struct Forum.Question[]",
          "name": "",
          "type": "tuple[]"
        }
      ],
      "stateMutability": "view",
      "type": "function"
    },
    {
      "inputs": [
        {
          "internalType": "uint256",
          "name": "_answerId",
          "type": "uint256"
        }
      ],
      "name": "getUpVotes",
      "outputs": [
        {
          "internalType": "uint256",
          "name": "",
          "type": "uint256"
        }
      ],
      "stateMutability": "view",
      "type": "function"
    },
    {
      "inputs": [
        {
          "internalType": "uint256",
          "name": "_questionId",
          "type": "uint256"
        },
        {
          "internalType": "string",
          "name": "_message",
          "type": "string"
        }
      ],
      "name": "postAnswer",
      "outputs": [],
      "stateMutability": "nonpayable",
      "type": "function"
    },
    {
      "inputs": [
        {
          "internalType": "string",
          "name": "_message",
          "type": "string"
        }
      ],
      "name": "postQuestion",
      "outputs": [],
      "stateMutability": "nonpayable",
      "type": "function"
    },
    {
      "inputs": [
        {
          "internalType": "uint256",
          "name": "",
          "type": "uint256"
        }
      ],
      "name": "questions",
      "outputs": [
        {
          "internalType": "uint256",
          "name": "questionId",
          "type": "uint256"
        },
        {
          "internalType": "string",
          "name": "message",
          "type": "string"
        },
        {
          "internalType": "address",
          "name": "creatorAddress",
          "type": "address"
        },
        {
          "internalType": "uint256",
          "name": "timeStamp",
          "type": "uint256"
        }
      ],
      "stateMutability": "view",
      "type": "function"
    },
    {
      "inputs": [
        {
          "internalType": "uint256",
          "name": "",
          "type": "uint256"
        },
        {
          "internalType": "address",
          "name": "",
          "type": "address"
        }
      ],
      "name": "upVoters",
      "outputs": [
        {
          "internalType": "bool",
          "name": "",
          "type": "bool"
        }
      ],
      "stateMutability": "view",
      "type": "function"
    },
    {
      "inputs": [
        {
          "internalType": "uint256",
          "name": "_answerId",
          "type": "uint256"
        }
      ],
      "name": "upvoteAnswer",
      "outputs": [],
      "stateMutability": "nonpayable",
      "type": "function"
    },
    {
      "inputs": [
        {
          "internalType": "address",
          "name": "",
          "type": "address"
        }
      ],
      "name": "usersUpVoteCount",
      "outputs": [
        {
          "internalType": "uint256",
          "name": "",
          "type": "uint256"
        }
      ],
      "stateMutability": "view",
      "type": "function"
    }
  ],
  "bytecode": "0x60a06040526012600a62000014919062000241565b600162000022919062000292565b6005556012600a62000035919062000241565b600a62000043919062000292565b6006553480156200005357600080fd5b506040516200272438038062002724833981810160405281019062000079919062000347565b8073ffffffffffffffffffffffffffffffffffffffff1660808173ffffffffffffffffffffffffffffffffffffffff16815250505062000379565b7f4e487b7100000000000000000000000000000000000000000000000000000000600052601160045260246000fd5b60008160011c9050919050565b6000808291508390505b600185111562000142578086048111156200011a5762000119620000b4565b5b60018516156200012a5780820291505b80810290506200013a85620000e3565b9450620000fa565b94509492505050565b6000826200015d576001905062000230565b816200016d576000905062000230565b81600181146200018657600281146200019157620001c7565b600191505062000230565b60ff841115620001a657620001a5620000b4565b5b8360020a915084821115620001c057620001bf620000b4565b5b5062000230565b5060208310610133831016604e8410600b8410161715620002015782820a905083811115620001fb57620001fa620000b4565b5b62000230565b620002108484846001620000f0565b925090508184048111156200022a5762000229620000b4565b5b81810290505b9392505050565b6000819050919050565b60006200024e8262000237565b91506200025b8362000237565b92506200028a7fffffffffffffffffffffffffffffffffffffffffffffffffffffffffffffffff84846200014b565b905092915050565b60006200029f8262000237565b9150620002ac8362000237565b9250828202620002bc8162000237565b91508282048414831517620002d657620002d5620000b4565b5b5092915050565b600080fd5b600073ffffffffffffffffffffffffffffffffffffffff82169050919050565b60006200030f82620002e2565b9050919050565b620003218162000302565b81146200032d57600080fd5b50565b600081519050620003418162000316565b92915050565b60006020828403121562000360576200035f620002dd565b5b6000620003708482850162000330565b91505092915050565b60805161236c620003b8600039600081816107ac0152818161088a0152818161096c01528181610a2f01528181610afc0152610f95015261236c6000f3fe608060405234801561001057600080fd5b50600436106100b45760003560e01c80639c783573116100715780639c783573146101a7578063a0376e86146101d7578063be28341f14610207578063c241267614610237578063c921d66c14610255578063dd7e4cda14610271576100b4565b806317599cc5146100b957806331b1b978146100ee5780637116cad8146101215780637df88f241461013d5780637e6ab9161461015957806397221ab714610189575b600080fd5b6100d360048036038101906100ce91906111d0565b6102a1565b6040516100e5969594939291906112dd565b60405180910390f35b610108600480360381019061010391906111d0565b610395565b6040516101189493929190611345565b60405180910390f35b61013b600480360381019061013691906113f6565b61047d565b005b610157600480360381019061015291906111d0565b6105e1565b005b610173600480360381019061016e91906111d0565b610cf4565b6040516101809190611443565b60405180910390f35b610191610d6d565b60405161019e91906115eb565b60405180910390f35b6101c160048036038101906101bc9190611639565b610ec8565b6040516101ce9190611694565b60405180910390f35b6101f160048036038101906101ec91906111d0565b610ef7565b6040516101fe919061175e565b60405180910390f35b610221600480360381019061021c9190611780565b610f62565b60405161022e9190611443565b60405180910390f35b61023f610f93565b60405161024c919061181f565b60405180910390f35b61026f600480360381019061026a919061183a565b610fb7565b005b61028b6004803603810190610286919061189a565b611178565b6040516102989190611443565b60405180910390f35b600181815481106102b157600080fd5b90600052602060002090600602016000915090508060000154908060010154908060020160009054906101000a900473ffffffffffffffffffffffffffffffffffffffff1690806003018054610306906118f6565b80601f0160208091040260200160405190810160405280929190818152602001828054610332906118f6565b801561037f5780601f106103545761010080835404028352916020019161037f565b820191906000526020600020905b81548152906001019060200180831161036257829003601f168201915b5050505050908060040154908060050154905086565b600081815481106103a557600080fd5b90600052602060002090600402016000915090508060000154908060010180546103ce906118f6565b80601f01602080910402602001604051908101604052809291908181526020018280546103fa906118f6565b80156104475780601f1061041c57610100808354040283529160200191610447565b820191906000526020600020905b81548152906001019060200180831161042a57829003601f168201915b5050505050908060020160009054906101000a900473ffffffffffffffffffffffffffffffffffffffff16908060030154905084565b6000808054905090506000604051806080016040528083815260200185858080601f016020809104026020016040519081016040528093929190818152602001838380828437600081840152601f19601f8201169050808301925050505050505081526020013373ffffffffffffffffffffffffffffffffffffffff16815260200142815250905060008190806001815401808255809150506001900390600052602060002090600402016000909190919091506000820151816000015560208201518160010190816105509190611af8565b5060408201518160020160006101000a81548173ffffffffffffffffffffffffffffffffffffffff021916908373ffffffffffffffffffffffffffffffffffffffff1602179055506060820151816003015550507f376a18caacbe57016421ef9c029b5cbc76833d5ee118741aced9f7b0d5080755816040516105d39190611c2d565b60405180910390a150505050565b8080600180549050101561062a576040517f08c379a000000000000000000000000000000000000000000000000000000000815260040161062190611c9b565b60405180910390fd5b6000600183815481106106405761063f611cbb565b5b90600052602060002090600602019050600115156003600085815260200190815260200160002060003373ffffffffffffffffffffffffffffffffffffffff1673ffffffffffffffffffffffffffffffffffffffff16815260200190815260200160002060009054906101000a900460ff161515036106f4576040517f08c379a00000000000000000000000000000000000000000000000000000000081526004016106eb90611d36565b60405180910390fd5b3373ffffffffffffffffffffffffffffffffffffffff166001848154811061071f5761071e611cbb565b5b906000526020600020906006020160020160009054906101000a900473ffffffffffffffffffffffffffffffffffffffff1673ffffffffffffffffffffffffffffffffffffffff16036107a7576040517f08c379a000000000000000000000000000000000000000000000000000000000815260040161079e90611da2565b60405180910390fd5b6005547f000000000000000000000000000000000000000000000000000000000000000073ffffffffffffffffffffffffffffffffffffffff166370a08231336040518263ffffffff1660e01b81526004016108039190611dc2565b602060405180830381865afa158015610820573d6000803e3d6000fd5b505050506040513d601f19601f820116820180604052508101906108449190611df2565b1015610885576040517f08c379a000000000000000000000000000000000000000000000000000000000815260040161087c90611e6b565b60405180910390fd5b6005547f000000000000000000000000000000000000000000000000000000000000000073ffffffffffffffffffffffffffffffffffffffff1663dd62ed3e33306040518363ffffffff1660e01b81526004016108e3929190611e8b565b602060405180830381865afa158015610900573d6000803e3d6000fd5b505050506040513d601f19601f820116820180604052508101906109249190611df2565b1015610965576040517f08c379a000000000000000000000000000000000000000000000000000000000815260040161095c90611f26565b60405180910390fd5b60006006547f000000000000000000000000000000000000000000000000000000000000000073ffffffffffffffffffffffffffffffffffffffff166370a082318460020160009054906101000a900473ffffffffffffffffffffffffffffffffffffffff166040518263ffffffff1660e01b81526004016109e79190611dc2565b602060405180830381865afa158015610a04573d6000803e3d6000fd5b505050506040513d601f19601f82011682018060405250810190610a289190611df2565b10610afa577f000000000000000000000000000000000000000000000000000000000000000073ffffffffffffffffffffffffffffffffffffffff166323b872dd338460020160009054906101000a900473ffffffffffffffffffffffffffffffffffffffff166005546040518463ffffffff1660e01b8152600401610ab093929190611f46565b6020604051808303816000875af1158015610acf573d6000803e3d6000fd5b505050506040513d601f19601f82011682018060405250810190610af39190611fa9565b9050610b9f565b7f000000000000000000000000000000000000000000000000000000000000000073ffffffffffffffffffffffffffffffffffffffff166323b872dd33306005546040518463ffffffff1660e01b8152600401610b5993929190611f46565b6020604051808303816000875af1158015610b78573d6000803e3d6000fd5b505050506040513d601f19601f82011682018060405250810190610b9c9190611fa9565b90505b80610bdf576040517f08c379a0000000000000000000000000000000000000000000000000000000008152600401610bd690612022565b60405180910390fd5b816005016000815480929190610bf490612071565b9190505550600460003373ffffffffffffffffffffffffffffffffffffffff1673ffffffffffffffffffffffffffffffffffffffff1681526020019081526020016000206000815480929190610c4990612071565b919050555060016003600086815260200190815260200160002060003373ffffffffffffffffffffffffffffffffffffffff1673ffffffffffffffffffffffffffffffffffffffff16815260200190815260200160002060006101000a81548160ff0219169083151502179055507f981efbd3888e53838a0e471c971b195676b7d47ce0aa1fe7398e3159ac9c145282604051610ce69190612269565b60405180910390a150505050565b600081806001805490501015610d3f576040517f08c379a0000000000000000000000000000000000000000000000000000000008152600401610d3690611c9b565b60405180910390fd5b60018381548110610d5357610d52611cbb565b5b906000526020600020906006020160050154915050919050565b60606000805480602002602001604051908101604052809291908181526020016000905b82821015610ebf578382906000526020600020906004020160405180608001604052908160008201548152602001600182018054610dce906118f6565b80601f0160208091040260200160405190810160405280929190818152602001828054610dfa906118f6565b8015610e475780601f10610e1c57610100808354040283529160200191610e47565b820191906000526020600020905b815481529060010190602001808311610e2a57829003601f168201915b505050505081526020016002820160009054906101000a900473ffffffffffffffffffffffffffffffffffffffff1673ffffffffffffffffffffffffffffffffffffffff1673ffffffffffffffffffffffffffffffffffffffff16815260200160038201548152505081526020019060010190610d91565b50505050905090565b60036020528160005260406000206020528060005260406000206000915091509054906101000a900460ff1681565b606060026000838152602001908152602001600020805480602002602001604051908101604052809291908181526020018280548015610f5657602002820191906000526020600020905b815481526020019060010190808311610f42575b50505050509050919050565b60026020528160005260406000208181548110610f7e57600080fd5b90600052602060002001600091509150505481565b7f000000000000000000000000000000000000000000000000000000000000000081565b6000600180549050905060006040518060c001604052808381526020018681526020013373ffffffffffffffffffffffffffffffffffffffff16815260200185858080601f016020809104026020016040519081016040528093929190818152602001838380828437600081840152601f19601f820116905080830192505050505050508152602001428152602001600081525090506001819080600181540180825580915050600190039060005260206000209060060201600090919091909150600082015181600001556020820151816001015560408201518160020160006101000a81548173ffffffffffffffffffffffffffffffffffffffff021916908373ffffffffffffffffffffffffffffffffffffffff16021790555060608201518160030190816110e99190611af8565b506080820151816004015560a082015181600501555050600260008681526020019081526020016000208290806001815401808255809150506001900390600052602060002001600090919091909150557f3cf697c933d5f6c91a562467f0ee88bd2ced5cda13703bce99632e92fd7fff73816040516111699190612314565b60405180910390a15050505050565b60046020528060005260406000206000915090505481565b600080fd5b600080fd5b6000819050919050565b6111ad8161119a565b81146111b857600080fd5b50565b6000813590506111ca816111a4565b92915050565b6000602082840312156111e6576111e5611190565b5b60006111f4848285016111bb565b91505092915050565b6112068161119a565b82525050565b600073ffffffffffffffffffffffffffffffffffffffff82169050919050565b60006112378261120c565b9050919050565b6112478161122c565b82525050565b600081519050919050565b600082825260208201905092915050565b60005b8381101561128757808201518184015260208101905061126c565b60008484015250505050565b6000601f19601f8301169050919050565b60006112af8261124d565b6112b98185611258565b93506112c9818560208601611269565b6112d281611293565b840191505092915050565b600060c0820190506112f260008301896111fd565b6112ff60208301886111fd565b61130c604083018761123e565b818103606083015261131e81866112a4565b905061132d60808301856111fd565b61133a60a08301846111fd565b979650505050505050565b600060808201905061135a60008301876111fd565b818103602083015261136c81866112a4565b905061137b604083018561123e565b61138860608301846111fd565b95945050505050565b600080fd5b600080fd5b600080fd5b60008083601f8401126113b6576113b5611391565b5b8235905067ffffffffffffffff8111156113d3576113d2611396565b5b6020830191508360018202830111156113ef576113ee61139b565b5b9250929050565b6000806020838503121561140d5761140c611190565b5b600083013567ffffffffffffffff81111561142b5761142a611195565b5b611437858286016113a0565b92509250509250929050565b600060208201905061145860008301846111fd565b92915050565b600081519050919050565b600082825260208201905092915050565b6000819050602082019050919050565b6114938161119a565b82525050565b600082825260208201905092915050565b60006114b58261124d565b6114bf8185611499565b93506114cf818560208601611269565b6114d881611293565b840191505092915050565b6114ec8161122c565b82525050565b600060808301600083015161150a600086018261148a565b506020830151848203602086015261152282826114aa565b915050604083015161153760408601826114e3565b50606083015161154a606086018261148a565b508091505092915050565b600061156183836114f2565b905092915050565b6000602082019050919050565b60006115818261145e565b61158b8185611469565b93508360208202850161159d8561147a565b8060005b858110156115d957848403895281516115ba8582611555565b94506115c583611569565b925060208a019950506001810190506115a1565b50829750879550505050505092915050565b600060208201905081810360008301526116058184611576565b905092915050565b6116168161122c565b811461162157600080fd5b50565b6000813590506116338161160d565b92915050565b600080604083850312156116505761164f611190565b5b600061165e858286016111bb565b925050602061166f85828601611624565b9150509250929050565b60008115159050919050565b61168e81611679565b82525050565b60006020820190506116a96000830184611685565b92915050565b600081519050919050565b600082825260208201905092915050565b6000819050602082019050919050565b60006116e7838361148a565b60208301905092915050565b6000602082019050919050565b600061170b826116af565b61171581856116ba565b9350611720836116cb565b8060005b8381101561175157815161173888826116db565b9750611743836116f3565b925050600181019050611724565b5085935050505092915050565b600060208201905081810360008301526117788184611700565b905092915050565b6000806040838503121561179757611796611190565b5b60006117a5858286016111bb565b92505060206117b6858286016111bb565b9150509250929050565b6000819050919050565b60006117e56117e06117db8461120c565b6117c0565b61120c565b9050919050565b60006117f7826117ca565b9050919050565b6000611809826117ec565b9050919050565b611819816117fe565b82525050565b60006020820190506118346000830184611810565b92915050565b60008060006040848603121561185357611852611190565b5b6000611861868287016111bb565b935050602084013567ffffffffffffffff81111561188257611881611195565b5b61188e868287016113a0565b92509250509250925092565b6000602082840312156118b0576118af611190565b5b60006118be84828501611624565b91505092915050565b7f4e487b7100000000000000000000000000000000000000000000000000000000600052602260045260246000fd5b6000600282049050600182168061190e57607f821691505b602082108103611921576119206118c7565b5b50919050565b7f4e487b7100000000000000000000000000000000000000000000000000000000600052604160045260246000fd5b60008190508160005260206000209050919050565b60006020601f8301049050919050565b600082821b905092915050565b6000600883026119b87fffffffffffffffffffffffffffffffffffffffffffffffffffffffffffffffff8261197b565b6119c2868361197b565b95508019841693508086168417925050509392505050565b60006119f56119f06119eb8461119a565b6117c0565b61119a565b9050919050565b6000819050919050565b611a0f836119da565b611a23611a1b826119fc565b848454611988565b825550505050565b600090565b611a38611a2b565b611a43818484611a06565b505050565b5b81811015611a6757611a5c600082611a30565b600181019050611a49565b5050565b601f821115611aac57611a7d81611956565b611a868461196b565b81016020851015611a95578190505b611aa9611aa18561196b565b830182611a48565b50505b505050565b600082821c905092915050565b6000611acf60001984600802611ab1565b1980831691505092915050565b6000611ae88383611abe565b9150826002028217905092915050565b611b018261124d565b67ffffffffffffffff811115611b1a57611b19611927565b5b611b2482546118f6565b611b2f828285611a6b565b600060209050601f831160018114611b625760008415611b50578287015190505b611b5a8582611adc565b865550611bc2565b601f198416611b7086611956565b60005b82811015611b9857848901518255600182019150602085019450602081019050611b73565b86831015611bb55784890151611bb1601f891682611abe565b8355505b6001600288020188555050505b505050505050565b6000608083016000830151611be2600086018261148a565b5060208301518482036020860152611bfa82826114aa565b9150506040830151611c0f60408601826114e3565b506060830151611c22606086018261148a565b508091505092915050565b60006020820190508181036000830152611c478184611bca565b905092915050565b7f416e7377657220646f6573206e6f742065786973740000000000000000000000600082015250565b6000611c85601583611258565b9150611c9082611c4f565b602082019050919050565b60006020820190508181036000830152611cb481611c78565b9050919050565b7f4e487b7100000000000000000000000000000000000000000000000000000000600052603260045260246000fd5b7f5573657220616c7265616479207570766f746564207468697320616e73776572600082015250565b6000611d20602083611258565b9150611d2b82611cea565b602082019050919050565b60006020820190508181036000830152611d4f81611d13565b9050919050565b7f43616e6e6f74207570766f7465206f776e20616e737765720000000000000000600082015250565b6000611d8c601883611258565b9150611d9782611d56565b602082019050919050565b60006020820190508181036000830152611dbb81611d7f565b9050919050565b6000602082019050611dd7600083018461123e565b92915050565b600081519050611dec816111a4565b92915050565b600060208284031215611e0857611e07611190565b5b6000611e1684828501611ddd565b91505092915050565b7f557365722068617320696e73756666696369656e742062616c616e6365000000600082015250565b6000611e55601d83611258565b9150611e6082611e1f565b602082019050919050565b60006020820190508181036000830152611e8481611e48565b9050919050565b6000604082019050611ea0600083018561123e565b611ead602083018461123e565b9392505050565b7f4163636f756e7420646964206e6f7420617070726f766520746f6b656e20737560008201527f636365737366756c6c7900000000000000000000000000000000000000000000602082015250565b6000611f10602a83611258565b9150611f1b82611eb4565b604082019050919050565b60006020820190508181036000830152611f3f81611f03565b9050919050565b6000606082019050611f5b600083018661123e565b611f68602083018561123e565b611f7560408301846111fd565b949350505050565b611f8681611679565b8114611f9157600080fd5b50565b600081519050611fa381611f7d565b92915050565b600060208284031215611fbf57611fbe611190565b5b6000611fcd84828501611f94565b91505092915050565b7f546f6b656e207472616e73666572204661696c65640000000000000000000000600082015250565b600061200c601583611258565b915061201782611fd6565b602082019050919050565b6000602082019050818103600083015261203b81611fff565b9050919050565b7f4e487b7100000000000000000000000000000000000000000000000000000000600052601160045260246000fd5b600061207c8261119a565b91507fffffffffffffffffffffffffffffffffffffffffffffffffffffffffffffffff82036120ae576120ad612042565b5b600182019050919050565b60008160001c9050919050565b6000819050919050565b60006120e36120de836120b9565b6120c6565b9050919050565b600073ffffffffffffffffffffffffffffffffffffffff82169050919050565b600061211d612118836120b9565b6120ea565b9050919050565b60008154612131816118f6565b61213b8186611499565b94506001821660008114612156576001811461216c5761219f565b60ff19831686528115156020028601935061219f565b61217585611956565b60005b8381101561219757815481890152600182019150602081019050612178565b808801955050505b50505092915050565b600060c0830160008084015490506121bf816120d0565b6121cc600087018261148a565b50600184015490506121dd816120d0565b6121ea602087018261148a565b50600284015490506121fb8161210a565b61220860408701826114e3565b5060038401858303606087015261221f8382612124565b92505060048401549050612232816120d0565b61223f608087018261148a565b5060058401549050612250816120d0565b61225d60a087018261148a565b50819250505092915050565b6000602082019050818103600083015261228381846121a8565b905092915050565b600060c0830160008301516122a3600086018261148a565b5060208301516122b6602086018261148a565b5060408301516122c960408601826114e3565b50606083015184820360608601526122e182826114aa565b91505060808301516122f6608086018261148a565b5060a083015161230960a086018261148a565b508091505092915050565b6000602082019050818103600083015261232e818461228b565b90509291505056fea264697066735822122005183f009f9382e94599397ede0ccdc49aa8731142b2d1cb3c9c83a83f64568e64736f6c63430008120033",
  "linkReferences": {},
  "deployedLinkReferences": {}
}